{
  "_format": "hh-sol-artifact-1",
  "contractName": "StakingToken",
  "sourceName": "contracts/StakingToken.sol",
  "abi": [
    {
      "inputs": [
        {
          "internalType": "address",
          "name": "_rewardTokenAddress",
          "type": "address"
        },
        {
          "internalType": "uint256",
          "name": "_rewardTokensPerBlock",
          "type": "uint256"
        }
      ],
      "stateMutability": "nonpayable",
      "type": "constructor"
    },
    {
      "anonymous": false,
      "inputs": [
        {
          "indexed": true,
          "internalType": "address",
          "name": "owner",
          "type": "address"
        },
        {
          "indexed": true,
          "internalType": "address",
          "name": "spender",
          "type": "address"
        },
        {
          "indexed": false,
          "internalType": "uint256",
          "name": "value",
          "type": "uint256"
        }
      ],
      "name": "Approval",
      "type": "event"
    },
    {
      "anonymous": false,
      "inputs": [
        {
          "indexed": true,
          "internalType": "address",
          "name": "user",
          "type": "address"
        },
        {
          "indexed": true,
          "internalType": "uint256",
          "name": "poolId",
          "type": "uint256"
        },
        {
          "indexed": false,
          "internalType": "uint256",
          "name": "amount",
          "type": "uint256"
        }
      ],
      "name": "CollectRewards",
      "type": "event"
    },
    {
      "anonymous": false,
      "inputs": [
        {
          "indexed": true,
          "internalType": "address",
          "name": "user",
          "type": "address"
        },
        {
          "indexed": true,
          "internalType": "uint256",
          "name": "poolId",
          "type": "uint256"
        },
        {
          "indexed": false,
          "internalType": "uint256",
          "name": "amount",
          "type": "uint256"
        }
      ],
      "name": "Deposit",
      "type": "event"
    },
    {
      "anonymous": false,
      "inputs": [
        {
          "indexed": true,
          "internalType": "address",
          "name": "previousOwner",
          "type": "address"
        },
        {
          "indexed": true,
          "internalType": "address",
          "name": "newOwner",
          "type": "address"
        }
      ],
      "name": "OwnershipTransferred",
      "type": "event"
    },
    {
      "anonymous": false,
      "inputs": [
        {
          "indexed": false,
          "internalType": "uint256",
          "name": "poolId",
          "type": "uint256"
        }
      ],
      "name": "PoolCreated",
      "type": "event"
    },
    {
      "anonymous": false,
      "inputs": [
        {
          "indexed": true,
          "internalType": "address",
          "name": "from",
          "type": "address"
        },
        {
          "indexed": true,
          "internalType": "address",
          "name": "to",
          "type": "address"
        },
        {
          "indexed": false,
          "internalType": "uint256",
          "name": "value",
          "type": "uint256"
        }
      ],
      "name": "Transfer",
      "type": "event"
    },
    {
      "anonymous": false,
      "inputs": [
        {
          "indexed": true,
          "internalType": "address",
          "name": "user",
          "type": "address"
        },
        {
          "indexed": true,
          "internalType": "uint256",
          "name": "poolId",
          "type": "uint256"
        },
        {
          "indexed": false,
          "internalType": "uint256",
          "name": "amount",
          "type": "uint256"
        }
      ],
      "name": "Withdraw",
      "type": "event"
    },
    {
      "inputs": [
        {
          "internalType": "address",
          "name": "owner",
          "type": "address"
        },
        {
          "internalType": "address",
          "name": "spender",
          "type": "address"
        }
      ],
      "name": "allowance",
      "outputs": [
        {
          "internalType": "uint256",
          "name": "",
          "type": "uint256"
        }
      ],
      "stateMutability": "view",
      "type": "function"
    },
    {
      "inputs": [
        {
          "internalType": "address",
          "name": "spender",
          "type": "address"
        },
        {
          "internalType": "uint256",
          "name": "amount",
          "type": "uint256"
        }
      ],
      "name": "approve",
      "outputs": [
        {
          "internalType": "bool",
          "name": "",
          "type": "bool"
        }
      ],
      "stateMutability": "nonpayable",
      "type": "function"
    },
    {
      "inputs": [
        {
          "internalType": "address",
          "name": "account",
          "type": "address"
        }
      ],
      "name": "balanceOf",
      "outputs": [
        {
          "internalType": "uint256",
          "name": "",
          "type": "uint256"
        }
      ],
      "stateMutability": "view",
      "type": "function"
    },
    {
      "inputs": [
        {
          "internalType": "uint256",
          "name": "_poolId",
          "type": "uint256"
        }
      ],
      "name": "collectRewards",
      "outputs": [],
      "stateMutability": "nonpayable",
      "type": "function"
    },
    {
      "inputs": [
        {
          "internalType": "contract StakeToken",
          "name": "_stakeToken",
          "type": "address"
        }
      ],
      "name": "createStakingPool",
      "outputs": [],
      "stateMutability": "nonpayable",
      "type": "function"
    },
    {
      "inputs": [],
      "name": "decimals",
      "outputs": [
        {
          "internalType": "uint8",
          "name": "",
          "type": "uint8"
        }
      ],
      "stateMutability": "view",
      "type": "function"
    },
    {
      "inputs": [
        {
          "internalType": "address",
          "name": "spender",
          "type": "address"
        },
        {
          "internalType": "uint256",
          "name": "subtractedValue",
          "type": "uint256"
        }
      ],
      "name": "decreaseAllowance",
      "outputs": [
        {
          "internalType": "bool",
          "name": "",
          "type": "bool"
        }
      ],
      "stateMutability": "nonpayable",
      "type": "function"
    },
    {
      "inputs": [
        {
          "internalType": "uint256",
          "name": "_poolId",
          "type": "uint256"
        },
        {
          "internalType": "uint256",
          "name": "_amount",
          "type": "uint256"
        }
      ],
      "name": "deposit",
      "outputs": [],
      "stateMutability": "payable",
      "type": "function"
    },
    {
      "inputs": [
        {
          "internalType": "address",
          "name": "spender",
          "type": "address"
        },
        {
          "internalType": "uint256",
          "name": "addedValue",
          "type": "uint256"
        }
      ],
      "name": "increaseAllowance",
      "outputs": [
        {
          "internalType": "bool",
          "name": "",
          "type": "bool"
        }
      ],
      "stateMutability": "nonpayable",
      "type": "function"
    },
    {
      "inputs": [],
      "name": "name",
      "outputs": [
        {
          "internalType": "string",
          "name": "",
          "type": "string"
        }
      ],
      "stateMutability": "view",
      "type": "function"
    },
    {
      "inputs": [],
      "name": "owner",
      "outputs": [
        {
          "internalType": "address",
          "name": "",
          "type": "address"
        }
      ],
      "stateMutability": "view",
      "type": "function"
    },
    {
      "inputs": [
        {
          "internalType": "uint256",
          "name": "",
          "type": "uint256"
        }
      ],
      "name": "pools",
      "outputs": [
        {
          "internalType": "contract StakeToken",
          "name": "stakeToken",
          "type": "address"
        },
        {
          "internalType": "uint256",
          "name": "tokensStaked",
          "type": "uint256"
        },
        {
          "internalType": "uint256",
          "name": "lastRewardedBlock",
          "type": "uint256"
        },
        {
          "internalType": "uint256",
          "name": "accumulatedRewardsPerShare",
          "type": "uint256"
        }
      ],
      "stateMutability": "view",
      "type": "function"
    },
    {
      "inputs": [],
      "name": "renounceOwnership",
      "outputs": [],
      "stateMutability": "nonpayable",
      "type": "function"
    },
    {
      "inputs": [],
      "name": "rewardToken",
      "outputs": [
        {
          "internalType": "contract RewardToken",
          "name": "",
          "type": "address"
        }
      ],
      "stateMutability": "view",
      "type": "function"
    },
    {
      "inputs": [],
      "name": "stakeToken",
      "outputs": [
        {
          "internalType": "contract StakeToken",
          "name": "",
          "type": "address"
        }
      ],
      "stateMutability": "view",
      "type": "function"
    },
    {
      "inputs": [
        {
          "internalType": "uint256",
          "name": "",
          "type": "uint256"
        },
        {
          "internalType": "address",
          "name": "",
          "type": "address"
        }
      ],
      "name": "stakerInfo",
      "outputs": [
        {
          "internalType": "uint256",
          "name": "amount",
          "type": "uint256"
        },
        {
          "internalType": "uint256",
          "name": "rewardDebt",
          "type": "uint256"
        },
        {
          "internalType": "uint256",
          "name": "rewards",
          "type": "uint256"
        }
      ],
      "stateMutability": "view",
      "type": "function"
    },
    {
      "inputs": [],
      "name": "symbol",
      "outputs": [
        {
          "internalType": "string",
          "name": "",
          "type": "string"
        }
      ],
      "stateMutability": "view",
      "type": "function"
    },
    {
      "inputs": [],
      "name": "totalSupply",
      "outputs": [
        {
          "internalType": "uint256",
          "name": "",
          "type": "uint256"
        }
      ],
      "stateMutability": "view",
      "type": "function"
    },
    {
      "inputs": [
        {
          "internalType": "address",
          "name": "to",
          "type": "address"
        },
        {
          "internalType": "uint256",
          "name": "amount",
          "type": "uint256"
        }
      ],
      "name": "transfer",
      "outputs": [
        {
          "internalType": "bool",
          "name": "",
          "type": "bool"
        }
      ],
      "stateMutability": "nonpayable",
      "type": "function"
    },
    {
      "inputs": [
        {
          "internalType": "address",
          "name": "from",
          "type": "address"
        },
        {
          "internalType": "address",
          "name": "to",
          "type": "address"
        },
        {
          "internalType": "uint256",
          "name": "amount",
          "type": "uint256"
        }
      ],
      "name": "transferFrom",
      "outputs": [
        {
          "internalType": "bool",
          "name": "",
          "type": "bool"
        }
      ],
      "stateMutability": "nonpayable",
      "type": "function"
    },
    {
      "inputs": [
        {
          "internalType": "address",
          "name": "newOwner",
          "type": "address"
        }
      ],
      "name": "transferOwnership",
      "outputs": [],
      "stateMutability": "nonpayable",
      "type": "function"
    },
    {
      "inputs": [
        {
          "internalType": "uint256",
          "name": "_poolId",
          "type": "uint256"
        }
      ],
      "name": "updatePoolRewards",
      "outputs": [],
      "stateMutability": "nonpayable",
      "type": "function"
    },
    {
      "inputs": [
        {
          "internalType": "uint256",
          "name": "_poolId",
          "type": "uint256"
        },
        {
          "internalType": "uint256",
          "name": "_amount",
          "type": "uint256"
        }
      ],
      "name": "withdraw",
      "outputs": [],
      "stateMutability": "nonpayable",
      "type": "function"
    }
  ],
  "bytecode": "0x60806040523480156200001157600080fd5b5060405162001958380380620019588339810160408190526200003491620001df565b6040518060400160405280600a8152602001692130b932902a37b5b2b760b11b8152506040518060400160405280600381526020016242544b60e81b8152506200008d62000087620000e560201b60201c565b620000e9565b8151620000a290600490602085019062000139565b508051620000b890600590602084019062000139565b5050600680546001600160a01b0319166001600160a01b0394909416939093179092556008555062000258565b3390565b600080546001600160a01b038381166001600160a01b0319831681178455604051919092169283917f8be0079c531659141344cd1fd0a4f28419497f9722a3daafe3b4186f6b6457e09190a35050565b82805462000147906200021b565b90600052602060002090601f0160209004810192826200016b5760008555620001b6565b82601f106200018657805160ff1916838001178555620001b6565b82800160010185558215620001b6579182015b82811115620001b657825182559160200191906001019062000199565b50620001c4929150620001c8565b5090565b5b80821115620001c45760008155600101620001c9565b60008060408385031215620001f357600080fd5b82516001600160a01b03811681146200020b57600080fd5b6020939093015192949293505050565b600181811c908216806200023057607f821691505b602082108114156200025257634e487b7160e01b600052602260045260246000fd5b50919050565b6116f080620002686000396000f3fe6080604052600436106101405760003560e01c806395d89b41116100b6578063be111af41161006f578063be111af4146103bd578063d751e5d9146103dd578063dd62ed3e1461043f578063e2bbb1581461045f578063f2fde38b14610472578063f7c618c11461049257600080fd5b806395d89b41146102de578063a457c2d7146102f3578063a9059cbb14610313578063ac4afa3814610333578063adb82b311461037d578063b18486d71461039d57600080fd5b8063395093511161010857806339509351146101fb578063441a3e701461021b57806351ed6a301461023d57806370a0823114610275578063715018a6146102ab5780638da5cb5b146102c057600080fd5b806306fdde0314610145578063095ea7b31461017057806318160ddd146101a057806323b872dd146101bf578063313ce567146101df575b600080fd5b34801561015157600080fd5b5061015a6104b2565b6040516101679190611433565b60405180910390f35b34801561017c57600080fd5b5061019061018b36600461147b565b610544565b6040519015158152602001610167565b3480156101ac57600080fd5b506003545b604051908152602001610167565b3480156101cb57600080fd5b506101906101da3660046114a7565b61055c565b3480156101eb57600080fd5b5060405160128152602001610167565b34801561020757600080fd5b5061019061021636600461147b565b610580565b34801561022757600080fd5b5061023b6102363660046114e8565b6105a2565b005b34801561024957600080fd5b5060075461025d906001600160a01b031681565b6040516001600160a01b039091168152602001610167565b34801561028157600080fd5b506101b161029036600461150a565b6001600160a01b031660009081526001602052604090205490565b3480156102b757600080fd5b5061023b6106d2565b3480156102cc57600080fd5b506000546001600160a01b031661025d565b3480156102ea57600080fd5b5061015a6106e6565b3480156102ff57600080fd5b5061019061030e36600461147b565b6106f5565b34801561031f57600080fd5b5061019061032e36600461147b565b610770565b34801561033f57600080fd5b5061035361034e36600461152e565b61077e565b604080516001600160a01b0390951685526020850193909352918301526060820152608001610167565b34801561038957600080fd5b5061023b61039836600461152e565b6107c2565b3480156103a957600080fd5b5061023b6103b836600461152e565b610863565b3480156103c957600080fd5b5061023b6103d836600461150a565b6109e3565b3480156103e957600080fd5b506104246103f8366004611547565b600a60209081526000928352604080842090915290825290208054600182015460029092015490919083565b60408051938452602084019290925290820152606001610167565b34801561044b57600080fd5b506101b161045a366004611577565b610b46565b61023b61046d3660046114e8565b610b71565b34801561047e57600080fd5b5061023b61048d36600461150a565b610ca2565b34801561049e57600080fd5b5060065461025d906001600160a01b031681565b6060600480546104c1906115a5565b80601f01602080910402602001604051908101604052809291908181526020018280546104ed906115a5565b801561053a5780601f1061050f5761010080835404028352916020019161053a565b820191906000526020600020905b81548152906001019060200180831161051d57829003601f168201915b5050505050905090565b600033610552818585610d1b565b5060019392505050565b60003361056a858285610e3f565b610575858585610eb3565b506001949350505050565b6000336105528185856105938383610b46565b61059d91906115f6565b610d1b565b600081116105f75760405162461bcd60e51b815260206004820152601d60248201527f576974686472617720616d6f756e742063616e2774206265207a65726f00000060448201526064015b60405180910390fd5b60006009838154811061060c5761060c61160e565b60009182526020808320868452600a8252604080852033865290925292206004909102909101915061063d84610863565b6000808255600383015464e8d4a51000916106589190611624565b6106629190611643565b816001018190555082826001015461067a9190611665565b6001830155604051838152849033907ff279e6a1f5e320cca91135676d9cb6e44ca8a08c0b88342bcdb1144f6511b5689060200160405180910390a381546106cc906001600160a01b0316338561105e565b50505050565b6106da6110c6565b6106e46000611120565b565b6060600580546104c1906115a5565b600033816107038286610b46565b9050838110156107635760405162461bcd60e51b815260206004820152602560248201527f45524332303a2064656372656173656420616c6c6f77616e63652062656c6f77604482015264207a65726f60d81b60648201526084016105ee565b6105758286868403610d1b565b600033610552818585610eb3565b6009818154811061078e57600080fd5b600091825260209091206004909102018054600182015460028301546003909301546001600160a01b039092169350919084565b6000600982815481106107d7576107d761160e565b906000526020600020906004020190508060010154600014156107fe574360029091015550565b60008160020154436108109190611665565b90506000600854826108229190611624565b600184015490915061083964e8d4a5100083611624565b6108439190611643565b836003015461085291906115f6565b600384015550504360029091015550565b61086c816107c2565b6000600982815481106108815761088161160e565b60009182526020808320858452600a8252604080852033865290925290832060018101546003600490940290920192830154815493955090939264e8d4a51000916108cb91611624565b6108d59190611643565b6108df9190611665565b905080610915576003830154825464e8d4a51000916108fd91611624565b6109079190611643565b826001018190555050505050565b600060028301556003830154825464e8d4a510009161093391611624565b61093d9190611643565b6001830155604051818152849033907f88a0b733f739b38786714e9769d7029ed12cc04424beab6f99c0d1941579d99d9060200160405180910390a36006546040516340c10f1960e01b8152336004820152602481018390526001600160a01b03909116906340c10f1990604401600060405180830381600087803b1580156109c557600080fd5b505af11580156109d9573d6000803e3d6000fd5b5050505050505050565b6109eb6110c6565b610a1f604051806080016040528060006001600160a01b031681526020016000815260200160008152602001600081525090565b6001600160a01b0382811682526009805460018082018355600083815285517f6e1540171b6c0c960b71a7020d9f60077f6af931a8bbf590da0223dacf75c7af600490940293840180546001600160a01b031916919096161790945560208501517f6e1540171b6c0c960b71a7020d9f60077f6af931a8bbf590da0223dacf75c7b083015560408501517f6e1540171b6c0c960b71a7020d9f60077f6af931a8bbf590da0223dacf75c7b183015560608501517f6e1540171b6c0c960b71a7020d9f60077f6af931a8bbf590da0223dacf75c7b2909201919091559054610b069190611665565b90507ffa88d81eaffbf548e3ffc6c6458827ce9906ad714060746b80909cdf8d1d7ef781604051610b3991815260200190565b60405180910390a1505050565b6001600160a01b03918216600090815260026020908152604080832093909416825291909152205490565b60008111610bc15760405162461bcd60e51b815260206004820152601c60248201527f4465706f73697420616d6f756e742063616e2774206265207a65726f0000000060448201526064016105ee565b600060098381548110610bd657610bd661160e565b60009182526020808320868452600a82526040808520338652909252922060049091029091019150610c0784610863565b8054610c149084906115f6565b808255600383015464e8d4a5100091610c2d9190611624565b610c379190611643565b8160010181905550828260010154610c4f91906115f6565b6001830155604051838152849033907f90890809c654f11d6e72a28fa60149770a0d11ec6c92319d6ceb2bb0a4ea1a159060200160405180910390a381546106cc906001600160a01b0316333086611170565b610caa6110c6565b6001600160a01b038116610d0f5760405162461bcd60e51b815260206004820152602660248201527f4f776e61626c653a206e6577206f776e657220697320746865207a65726f206160448201526564647265737360d01b60648201526084016105ee565b610d1881611120565b50565b6001600160a01b038316610d7d5760405162461bcd60e51b8152602060048201526024808201527f45524332303a20617070726f76652066726f6d20746865207a65726f206164646044820152637265737360e01b60648201526084016105ee565b6001600160a01b038216610dde5760405162461bcd60e51b815260206004820152602260248201527f45524332303a20617070726f766520746f20746865207a65726f206164647265604482015261737360f01b60648201526084016105ee565b6001600160a01b0383811660008181526002602090815260408083209487168084529482529182902085905590518481527f8c5be1e5ebec7d5bd14f71427d1e84f3dd0314c0f7b2291e5b200ac8c7c3b925910160405180910390a3505050565b6000610e4b8484610b46565b905060001981146106cc5781811015610ea65760405162461bcd60e51b815260206004820152601d60248201527f45524332303a20696e73756666696369656e7420616c6c6f77616e636500000060448201526064016105ee565b6106cc8484848403610d1b565b6001600160a01b038316610f175760405162461bcd60e51b815260206004820152602560248201527f45524332303a207472616e736665722066726f6d20746865207a65726f206164604482015264647265737360d81b60648201526084016105ee565b6001600160a01b038216610f795760405162461bcd60e51b815260206004820152602360248201527f45524332303a207472616e7366657220746f20746865207a65726f206164647260448201526265737360e81b60648201526084016105ee565b6001600160a01b03831660009081526001602052604090205481811015610ff15760405162461bcd60e51b815260206004820152602660248201527f45524332303a207472616e7366657220616d6f756e7420657863656564732062604482015265616c616e636560d01b60648201526084016105ee565b6001600160a01b0380851660008181526001602052604080822086860390559286168082529083902080548601905591517fddf252ad1be2c89b69c2b068fc378daa952ba7f163c4a11628f55a4df523b3ef906110519086815260200190565b60405180910390a36106cc565b6040516001600160a01b0383166024820152604481018290526110c190849063a9059cbb60e01b906064015b60408051601f198184030181529190526020810180516001600160e01b03166001600160e01b0319909316929092179091526111a8565b505050565b6000546001600160a01b031633146106e45760405162461bcd60e51b815260206004820181905260248201527f4f776e61626c653a2063616c6c6572206973206e6f7420746865206f776e657260448201526064016105ee565b600080546001600160a01b038381166001600160a01b0319831681178455604051919092169283917f8be0079c531659141344cd1fd0a4f28419497f9722a3daafe3b4186f6b6457e09190a35050565b6040516001600160a01b03808516602483015283166044820152606481018290526106cc9085906323b872dd60e01b9060840161108a565b60006111fd826040518060400160405280602081526020017f5361666545524332303a206c6f772d6c6576656c2063616c6c206661696c6564815250856001600160a01b031661127a9092919063ffffffff16565b8051909150156110c1578080602001905181019061121b919061167c565b6110c15760405162461bcd60e51b815260206004820152602a60248201527f5361666545524332303a204552433230206f7065726174696f6e20646964206e6044820152691bdd081cdd58d8d9595960b21b60648201526084016105ee565b60606112898484600085611291565b949350505050565b6060824710156112f25760405162461bcd60e51b815260206004820152602660248201527f416464726573733a20696e73756666696369656e742062616c616e636520666f6044820152651c8818d85b1b60d21b60648201526084016105ee565b600080866001600160a01b0316858760405161130e919061169e565b60006040518083038185875af1925050503d806000811461134b576040519150601f19603f3d011682016040523d82523d6000602084013e611350565b606091505b50915091506113618783838761136c565b979650505050505050565b606083156113d85782516113d1576001600160a01b0385163b6113d15760405162461bcd60e51b815260206004820152601d60248201527f416464726573733a2063616c6c20746f206e6f6e2d636f6e747261637400000060448201526064016105ee565b5081611289565b61128983838151156113ed5781518083602001fd5b8060405162461bcd60e51b81526004016105ee9190611433565b60005b8381101561142257818101518382015260200161140a565b838111156106cc5750506000910152565b6020815260008251806020840152611452816040850160208701611407565b601f01601f19169190910160400192915050565b6001600160a01b0381168114610d1857600080fd5b6000806040838503121561148e57600080fd5b823561149981611466565b946020939093013593505050565b6000806000606084860312156114bc57600080fd5b83356114c781611466565b925060208401356114d781611466565b929592945050506040919091013590565b600080604083850312156114fb57600080fd5b50508035926020909101359150565b60006020828403121561151c57600080fd5b813561152781611466565b9392505050565b60006020828403121561154057600080fd5b5035919050565b6000806040838503121561155a57600080fd5b82359150602083013561156c81611466565b809150509250929050565b6000806040838503121561158a57600080fd5b823561159581611466565b9150602083013561156c81611466565b600181811c908216806115b957607f821691505b602082108114156115da57634e487b7160e01b600052602260045260246000fd5b50919050565b634e487b7160e01b600052601160045260246000fd5b60008219821115611609576116096115e0565b500190565b634e487b7160e01b600052603260045260246000fd5b600081600019048311821515161561163e5761163e6115e0565b500290565b60008261166057634e487b7160e01b600052601260045260246000fd5b500490565b600082821015611677576116776115e0565b500390565b60006020828403121561168e57600080fd5b8151801515811461152757600080fd5b600082516116b0818460208701611407565b919091019291505056fea2646970667358221220cab56415b59d0264df656bff1909f226d0c7cccbfd5f67b6554ec9b9f281b8a964736f6c63430008090033",
  "linkReferences": {},
  "deployedLinkReferences": {}
}